H AGENCY_SYSTEM_001                       5020                                                                                                                                                                                                                                                                                                                                                                                                                                                                                                                                                                                                                                                                                                                                                                                                                                    
01AGCY00000000SCH001Salary                   PPD12345678 123456789                                                                                                                                                                                                                                                                                                                                                                                                                                                                                                                                                                                                                                                                                                                                                                                                                
02EMP001          0000250000S1JOHN DOE                           123 MAIN ST                        APT 4B                             WASHINGTON                           DC20001       0210000211234567890       22                                            PAY001                                                                                                                  1234567891                                                                                                                                                                                                                                                                                                                                                                                                                                                                              
G PAY001                   012         1234001SALARY0100002500000                                                                                                                                                                                                                                                                                                                                                                                                                                                                                                                                                                                                                                                                                                                                                                                                                 
02EMP002          0000350000S1JANE SMITH                         456 OAK AVE                                                           ARLINGTON                            VA22201       0210000210987654321       32                                            PAY002                                                                                                                  9876543211                                                                                                                                                                                                                                                                                                                                                                                                                                                                              
T           00000002   000000000600000                                                                                                                                                                                                                                                                                                                                                                                                                                                                                                                                                                                                                                                                                                                                                                                                                                            
E 000000000000000007000000000000000002000000000000600000                                                                                                                                                                                                                                                                                                                                                                                                                                                                                                                                                                                                                                                                                                                                                                                                                          
