H SYNTHETIC_TEST_FILE_2025011001          5020                                                                                                                                                                                                                                                                                                                                                                                                                                                                                                                                                                                                                                                                                                                                                                                                                                    
01 ACH000000000000010000000000000000000000000PPD12345678 1234567890                                                                                                                                                                                                                                                                                                                                                                                                                                                                                                                                                                                                                                                                                                                                                                                                               
02SYNTH0000000000100000010001 JOHN DOE                           123 MAIN STREET                    APT 4B                             ANYTOWN                    CALIFORNIACA1234500000US1234567891234567890123456722000000000JANE DOE                           PAYMENT000000000001 SYNTHETIC TEST RECONCILEMENT DATA FOR ACH PAYMENT                                                   1234567891 0000001000                                                                                                                                                                                                                                                                                                                                                                                                                                                                   
T           00000001   000000000001000                                                                                                                                                                                                                                                                                                                                                                                                                                                                                                                                                                                                                                                                                                                                                                                                                                            
E 000000000000000005000000000000000001000000000000001000                                                                                                                                                                                                                                                                                                                                                                                                                                                                                                                                                                                                                                                                                                                                                                                                                          
