H SYNTHETIC_TEST_FILE_2025011001          5020                                                                                                                                                                                                                                                                                                                                                                                                                                                                                                                                                                                                                                                                                                                                                                                                                                    
01 ACH000000000000010000000000000000000000000PPD12345678 1234567890                                                                                                                                                                                                                                                                                                                                                                                                                                                                                                                                                                                                                                                                                                                                                                                                               
02SYNTH0000000000100000010001 JOHN DOE                           123 MAIN STREET                    APT 4B                             ANYTOWN                    CALIFORNIACA1234500000US1234567891234567890123456722000000000JANE DOE                           PAYMENT000000000001 SYNTHETIC TEST RECONCILEMENT DATA FOR ACH PAYMENT                                                   1234567891 0000001000                                                                                                                                                                                                                                                                                                                                                                                                                                                                   
02SYNTH0000000000200000015001 JOHN DOE                           123 MAIN STREET                    APT 4B                             ANYTOWN                    CALIFORNIACA1234500000US1234567891234567890123456722000000000JANE DOE                           PAYMENT000000000002 SYNTHETIC TEST RECONCILEMENT DATA FOR ACH PAYMENT                                                   1234567891 0000001500                                                                                                                                                                                                                                                                                                                                                                                                                                                                   
T           00000002   000000000002500                                                                                                                                                                                                                                                                                                                                                                                                                                                                                                                                                                                                                                                                                                                                                                                                                                            
1100000000000002000000000000000000000000012345678         0000000000                                                                                                                                                                                                                                                                                                                                                                                                                                                                                                                                                                                                                                                                                                                                                                                                              
12SYNTH0000000000300000020001 JANE SMITH                         456 OAK AVENUE                     000000000000000000000000000000000000000000000000000000000000000000000000000000000000000000000000000000000ANOTHER CITY               TEXAS     TX7500100000000              UNITED STATES                           000PAY TO THE ORDER OF                                    DOLLARS                                                00000000000000000000000000000000000000000000PAYMENT000000000003 SYNTHETIC TEST RECONCILEMENT DATA FOR CHECK PAYMENT                                                 00000000000000000000000000000000000000000000000000987654321000000000000000000000000000000000000000000000000001 0000002000                                                                                                                                             
T           00000001   000000000002000                                                                                                                                                                                                                                                                                                                                                                                                                                                                                                                                                                                                                                                                                                                                                                                                                                            
E 000000000000000009000000000000000003000000000000004500                                                                                                                                                                                                                                                                                                                                                                                                                                                                                                                                                                                                                                                                                                                                                                                                                          
