H SYNTHETIC_TEST_FILE_2025011001          5020                                                                                                                                                                                                                                                                                                                                                                                                                                                                                                                                                                                                                                                                                                                                                                                                                                    
1100000000000002000000000000000000000000012345678         0000000000                                                                                                                                                                                                                                                                                                                                                                                                                                                                                                                                                                                                                                                                                                                                                                                                              
12SYNTH0000000000200000025001 JANE SMITH                         456 OAK AVENUE                     000000000000000000000000000000000000000000000000000000000000000000000000000000000000000000000000000000000ANOTHER CITY               TEXAS     TX7500100000000              UNITED STATES                           000PAY TO THE ORDER OF                                    DOLLARS                                                00000000000000000000000000000000000000000000PAYMENT000000000002 SYNTHETIC TEST RECONCILEMENT DATA FOR CHECK PAYMENT                                                 00000000000000000000000000000000000000000000000000987654321000000000000000000000000000000000000000000000000001 0000002500                                                                                                                                             
T           00000001   000000000002500                                                                                                                                                                                                                                                                                                                                                                                                                                                                                                                                                                                                                                                                                                                                                                                                                                            
E 000000000000000005000000000000000001000000000000002500                                                                                                                                                                                                                                                                                                                                                                                                                                                                                                                                                                                                                                                                                                                                                                                                                          
