H SYNTHETIC_TEST_FILE_2025011001          5020                                                                                                                                                                                                                                                                                                                                                                                                                                                                                                                                                                                                                                                                                                                                                                                                                                    
01 ACH000000000000010000000000000000000000000PPD12345678 1234567890                                                                                                                                                                                                                                                                                                                                                                                                                                                                                                                                                                                                                                                                                                                                                                                                               
02SYNTHRRB0000001 00000030001 RAILROAD RETIREMENT ANNUITANT      789 GOVERNMENT PLAZA               00000000000000000000000000000000000WASHINGTON                 DISTRICT ODC2000100000US123456789987654321098765432200000000000000000000000000000000000000000000PAYMENTRRB00000001  RRB RETIREMENT ANNUITY PAYMENT                                                                      1112233331 0000003000                                                                                                                                                                                                                                                                                                                                                                                                                                                                   
T           00000001   000000000003000                                                                                                                                                                                                                                                                                                                                                                                                                                                                                                                                                                                                                                                                                                                                                                                                                                            
E 000000000000000005000000000000000001000000000000003000                                                                                                                                                                                                                                                                                                                                                                                                                                                                                                                                                                                                                                                                                                                                                                                                                          
